{
  "contractName": "HelpingHand",
  "abi": [
    {
      "anonymous": false,
      "inputs": [
        {
          "indexed": true,
          "name": "id",
          "type": "uint256"
        },
        {
          "indexed": true,
          "name": "creator",
          "type": "address"
        },
        {
          "indexed": true,
          "name": "req",
          "type": "uint256"
        }
      ],
      "name": "NewCause",
      "type": "event"
    },
    {
      "anonymous": false,
      "inputs": [
        {
          "indexed": true,
          "name": "id",
          "type": "uint256"
        },
        {
          "indexed": true,
          "name": "donor",
          "type": "address"
        },
        {
          "indexed": true,
          "name": "amt",
          "type": "uint256"
        }
      ],
      "name": "DonationMade",
      "type": "event"
    },
    {
      "anonymous": false,
      "inputs": [
        {
          "indexed": true,
          "name": "id",
          "type": "uint256"
        }
      ],
      "name": "DonationWithdrawn",
      "type": "event"
    },
    {
      "anonymous": false,
      "inputs": [
        {
          "indexed": false,
          "name": "volunteer",
          "type": "address"
        },
        {
          "indexed": false,
          "name": "sender",
          "type": "address"
        },
        {
          "indexed": false,
          "name": "amt",
          "type": "uint256"
        }
      ],
      "name": "VolunteerTipped",
      "type": "event"
    },
    {
      "constant": false,
      "inputs": [
        {
          "name": "_req",
          "type": "uint256"
        }
      ],
      "name": "createCause",
      "outputs": [],
      "payable": false,
      "stateMutability": "nonpayable",
      "type": "function"
    },
    {
      "constant": false,
      "inputs": [
        {
          "name": "_id",
          "type": "uint256"
        }
      ],
      "name": "donate",
      "outputs": [],
      "payable": true,
      "stateMutability": "payable",
      "type": "function"
    },
    {
      "constant": false,
      "inputs": [
        {
          "name": "_id",
          "type": "uint256"
        }
      ],
      "name": "withdraw",
      "outputs": [],
      "payable": false,
      "stateMutability": "nonpayable",
      "type": "function"
    },
    {
      "constant": false,
      "inputs": [
        {
          "name": "_receiver",
          "type": "address"
        }
      ],
      "name": "tip",
      "outputs": [],
      "payable": true,
      "stateMutability": "payable",
      "type": "function"
    }
  ],
  "bytecode": "0x6080604052600060025534801561001557600080fd5b506107b3806100256000396000f3fe60806040526004361061003f5760003560e01c80632e1a7d4d14610044578063a2a0137a1461007f578063ac733ef7146100ba578063f14faf6f146100fe575b600080fd5b34801561005057600080fd5b5061007d6004803603602081101561006757600080fd5b810190808035906020019092919050505061012c565b005b34801561008b57600080fd5b506100b8600480360360208110156100a257600080fd5b810190808035906020019092919050505061035d565b005b6100fc600480360360208110156100d057600080fd5b81019080803573ffffffffffffffffffffffffffffffffffffffff1690602001909291905050506104ae565b005b61012a6004803603602081101561011457600080fd5b810190808035906020019092919050505061060e565b005b60008082815260200190815260200160002060009054906101000a900460ff166101a1576040517f08c379a00000000000000000000000000000000000000000000000000000000081526004018080602001828103825260218152602001806107676021913960400191505060405180910390fd5b6001600082815260200190815260200160002060010160009054906101000a900473ffffffffffffffffffffffffffffffffffffffff1673ffffffffffffffffffffffffffffffffffffffff163373ffffffffffffffffffffffffffffffffffffffff161461020f57600080fd5b3373ffffffffffffffffffffffffffffffffffffffff166108fc60016000848152602001908152602001600020600401546001600085815260200190815260200160002060030154039081150290604051600060405180830381858888f19350505050158015610283573d6000803e3d6000fd5b506001600082815260200190815260200160002060030154600160008381526020019081526020016000206004018190555060016000828152602001908152602001600020600401546001600083815260200190815260200160002060020154036001600083815260200190815260200160002060030154141561032d57600080600083815260200190815260200160002060006101000a81548160ff0219169083151502179055505b807fadad3dc8cf690add201160c828a7a70d8f7134ec9ec064830bf965e8bd5cfeb960405160405180910390a250565b6002600081548092919060010191905055506001600080600254815260200190815260200160002060006101000a81548160ff0219169083151502179055506040518060a0016040528060025481526020013373ffffffffffffffffffffffffffffffffffffffff1681526020018281526020016000815260200160008152506001600060025481526020019081526020016000206000820151816000015560208201518160010160006101000a81548173ffffffffffffffffffffffffffffffffffffffff021916908373ffffffffffffffffffffffffffffffffffffffff160217905550604082015181600201556060820151816003015560808201518160040155905050803373ffffffffffffffffffffffffffffffffffffffff166002547fb7b3ec57ec6e818e20a9c9365a1d26439efb369e1d86e11bfe37aac47012c9ef60405160405180910390a450565b6000341415610525576040517f08c379a000000000000000000000000000000000000000000000000000000000815260040180806020018281038252600f8152602001807f43616e277420746970203020455448000000000000000000000000000000000081525060200191505060405180910390fd5b8073ffffffffffffffffffffffffffffffffffffffff166108fc349081150290604051600060405180830381858888f1935050505015801561056b573d6000803e3d6000fd5b507fc7b02e141378fa1c151da4ba1e933d623b8292f7a4f3be3dabc1339b7e969e73813334604051808473ffffffffffffffffffffffffffffffffffffffff1673ffffffffffffffffffffffffffffffffffffffff1681526020018373ffffffffffffffffffffffffffffffffffffffff1673ffffffffffffffffffffffffffffffffffffffff168152602001828152602001935050505060405180910390a150565b6000341415610685576040517f08c379a00000000000000000000000000000000000000000000000000000000081526004018080602001828103825260128152602001807f43616e277420646f6e617465203020455448000000000000000000000000000081525060200191505060405180910390fd5b60008082815260200190815260200160002060009054906101000a900460ff166106fa576040517f08c379a00000000000000000000000000000000000000000000000000000000081526004018080602001828103825260218152602001806107676021913960400191505060405180910390fd5b346001600083815260200190815260200160002060030160008282540192505081905550343373ffffffffffffffffffffffffffffffffffffffff16827fe555da28bdb778f65d22794d88927ebaeca03f7de9d1b7d39245bc8fb5ca078a60405160405180910390a45056fe436175736520666f7220646f6e6174696f6e20646f6573206e6f74206578697374a165627a7a72305820200e9d4e7e7f2bbbd909a0a6035ebedaf186b135dbd4c7732a55a51cdb34521a0029",
  "source": "pragma solidity >=0.5.0 <0.7.0;\n\ncontract HelpingHand{\n    \n    struct Cause{\n        uint256 id;\n        address creator;\n        uint256 requirement;\n        uint256 donated;\n        uint256 withdrawn;\n    }\n    \n    mapping(uint256 => bool) cause_exists;\n    mapping(uint256 => Cause) causes;\n    \n    uint256 counter = 0;\n    \n    event NewCause(uint256 indexed id, address indexed creator, uint256 indexed req);\n    event DonationMade(uint256 indexed id, address indexed donor, uint256 indexed amt);\n    event DonationWithdrawn(uint256 indexed id);\n    event VolunteerTipped(address volunteer, address sender, uint256 amt);\n    \n    \n    function createCause(uint256 _req) public {\n        counter++;\n        cause_exists[counter] = true;\n        causes[counter] = Cause({id: counter, creator: msg.sender, requirement: _req, donated: 0, withdrawn: 0});\n        \n        emit NewCause(counter, msg.sender, _req);\n    }\n    \n    function donate(uint256 _id) payable public {\n        require(msg.value != 0, \"Can't donate 0 ETH\");\n        require(cause_exists[_id], \"Cause for donation does not exist\");\n        \n        causes[_id].donated += msg.value;\n        \n        emit DonationMade(_id, msg.sender, msg.value);\n    }\n    \n    function withdraw(uint _id) public {\n        require(cause_exists[_id], \"Cause for donation does not exist\");\n        require(msg.sender == causes[_id].creator);\n        \n\n        msg.sender.transfer(causes[_id].donated - causes[_id].withdrawn);\n        causes[_id].withdrawn = causes[_id].donated;\n        \n        if(causes[_id].donated == causes[_id].requirement - causes[_id].withdrawn){\n            cause_exists[_id] = false;\n        }\n        \n        emit DonationWithdrawn(_id);\n    }\n    \n    function tip(address payable _receiver) payable public {\n        require(msg.value != 0, \"Can't tip 0 ETH\");\n        _receiver.transfer(msg.value);\n        \n        emit VolunteerTipped(_receiver, msg.sender, msg.value);\n    }\n}",
  "sourcePath": "/home/tezansahu/Tezan/Github Repos/HackCovid19_Project/blockchain/contracts/HelpingHand.sol",
  "compiler": {
    "name": "solc",
    "version": "0.5.8+commit.23d335f2.Emscripten.clang"
  },
  "schemaVersion": "3.0.11",
  "updatedAt": "2020-03-25T10:16:49.817Z",
  "devdoc": {
    "methods": {}
  },
  "userdoc": {
    "methods": {}
  }
}